:100000000C94C3000C94F4000C94F4000C94F400D1
:100010000C94F4000C94F4000C94F4000C94F40090
:100020000C94F4000C94F4000C94F4000C94F40080
:100030000C94F4000C94F4000C94F4000C94F40070
:100040000C94F4000C94F4000C94F4000C94F40060
:100050000C94F4000C94F4000C94F4000C941D0D1A
:100060000C94F4000C94E50D0C94BB0D0C94F4006E
:100070000C94F4000C94F4000C94F4000C94F40030
:100080000C94F4000C94F4000C94F4000C94F40020
:100090000C94910D0C94670D0C94F4000C94F400E6
:1000A0000C94F4000C94F4000C94F4000C94F40000
:1000B0000C94F4000C94F4000C94F4000C94F400F0
:1000C0000C94F4000C94F4000C94F4000C94F400E0
:1000D0000C94F4000C94F4000C94F4000C94F400D0
:1000E0000C94F4000C9405040C9408040C94B302D2
:1000F0000C9495010C94C6010C9414040C94FF0309
:100100000C946C020C94B8010C9488080C943B0578
:100110000C9476060C940F030C940B040C94380585
:100120000C94720C0C944C060C9411040C945C040A
:100130000C9415030C9426070C94D30B0C94020416
:100140000C940A030C9474070C944D010C940E0447
:100150000C9492060C943E050C9456070C9484055E
:100160000C949A0C0C94F6000C9459040C94120301
:100170000C940F0E0C9456040C94FC030C94A401E4
:100180000C9419030F0E11241FBECFEFD1E2DEBF76
:10019000CDBF00E00CBF13E0A0E0B2E0E0E3F8E286
:1001A00000E00BBF02C007900D92AE3FB107D9F738
:1001B0002BE0AEEFB3E001C01D92A531B207E1F72D
:1001C00010E0C3ECD0E000E006C021970109802FC9
:1001D000FE010E94BE10C23CD10780E00807A9F7CB
:1001E0000E94360F0C9416140C940000CF93DF93EA
:1001F000EC0120E030E048EC52E46C817D818E819E
:100200009F810E945D110E94DA1070930005609337
:10021000FF0420E030E048EC52E46A8D7B8D8C8D49
:100220009D8D0E945D110E94DA107093FE04609310
:10023000FD04DF91CF9108953FB7F89480910605B2
:1002400090910705A0910805B091090526B5A89BD6
:1002500005C02F3F19F00196A11DB11D3FBFBA2F58
:10026000A92F982F8827820F911DA11DB11DBC01B8
:10027000CD0142E0660F771F881F991F4A95D1F77D
:1002800008952FB7F894609102057091030580914D
:100290000405909105052FBF0895CF92DF92EF924C
:1002A000FF920F931F93CF93DF936C017A018B0121
:1002B000C0E0D0E0CE15DF0589F0D8016D918D0149
:1002C000D601ED91FC910190F081E02DC6011995C8
:1002D000892B11F47E0102C02196ECCFC701DF917A
:1002E000CF911F910F91FF90EF90DF90CF900895E5
:1002F000FC01A089B1898C91A689B78982FD0FC0C4
:100300009C91818D8F5F8F73228D821749F0218D93
:10031000DF01A20FB11D5D969C93818F08958C9192
:100320000895089580E090E00895FC01538D448D78
:10033000252F30E0842F90E0821B930B541710F090
:10034000CF96089501970895FC01918D828D98179D
:1003500061F0828DDF01A80FB11D5D968C91928DA9
:100360009F5F9F73928F90E008958FEF9FEF0895A6
:10037000FC01918D828D981731F0828DE80FF11D6F
:10038000858D90E008958FEF9FEF0895FC01918D8A
:10039000228D892F90E0805C9F4F821B91098F7383
:1003A000992708958AE095E00E94C60121E0892BF3
:1003B00009F420E0822F089587EA95E00E94C601A3
:1003C00021E0892B09F420E0822F0895CF92DF925B
:1003D000EF92FF921F93CF93DF93EC016A017B01B1
:1003E000122FE889F98982E080834115514E610519
:1003F0007105B1F060E079E08DE390E0A70196012E
:100400000E947D10DA01C9010197A109B109B695D1
:10041000A79597958795AC01411580E15807A8F0FD
:10042000E889F989108260E874E88EE190E0A7011C
:1004300096010E947D10BA01A9014150510961093C
:1004400071097695679557954795EC85FD8550839D
:10045000EE85FF854083188EEC89FD891083EA893B
:10046000FB89808180618083EA89FB898081886043
:100470008083EA89FB89808180688083EA89FB899F
:1004800080818F7D8083DF91CF911F91FF90EF90CE
:10049000DF90CF900895FC01848DDF01A80FB11D7E
:1004A000A35ABF4F2C91848D90E001968F739927AA
:1004B000848FA689B7892C93A089B1898C91806497
:1004C0008C93938D848D981306C00288F389E02D58
:1004D00080818F7D80830895EF92FF920F931F9309
:1004E000CF93DF93EC0181E0888F9B8D8C8D9813E7
:1004F00005C0E889F989808185FD24C0F62E0B8D21
:1005000010E00F5F1F4F0F731127E02E8C8DE81244
:100510000CC00FB607FCFACFE889F989808185FF06
:10052000F5CFCE010E944B02F1CF8B8DFE01E80F7B
:10053000F11DE35AFF4FF0820B8FEA89FB8980811E
:10054000806207C0EE89FF896083E889F98980812C
:100550008064808381E090E0DF91CF911F910F91C3
:10056000FF90EF900895CF93DF93EC01888D88235F
:10057000C9F0EA89FB89808185FD05C0A889B98910
:100580008C9186FD0FC00FB607FCF5CF808185FFEB
:10059000F2CFA889B9898C9185FFEDCFCE010E9459
:1005A0004B02E7CFDF91CF91089580E090E0892B57
:1005B00021F00E94DC01811121C080E090E0892BB4
:1005C00021F00E94D20181111CC080E090E0892BB3
:1005D00041F080E090E0892B21F00E940000811121
:1005E00013C080E090E0892BA1F080E090E0892B9F
:1005F00081F00E94000081110AC008950E9400004D
:10060000DCCF0E940000E1CF0E940000EACF0C94F2
:1006100000000895FC01EE57FB4F8081089582E9A8
:1006200092E0089583EB92E00895FC0186A197A1E2
:1006300008958F929F92AF92BF92CF92DF92EF92E6
:10064000FF920F931F93CF93DF9300D01F921F92BF
:10065000CDB7DEB78C016B0164E6C616D1043CF061
:10066000FC01EE57FB4F8081882309F478C0DA0142
:10067000ED91FC910190F081E02DB801655E7D4F18
:10068000CA0119959C017801BCEEEB1ABDEFFB0A7B
:100690004FEFF70140834EEF3196408331968083D0
:1006A000319690833196890F809580833196C082F0
:1006B000D801A65EBD4FDC9265E070E040E050E0FE
:1006C000C90107966817790730F4A1914A0F511DA7
:1006D0006F5F7F4FF7CF6901F8E0CF0ED11C800F1D
:1006E000911FFC01EC5EFD4F4095408341E0C41634
:1006F00042E0D406C1F056014701D80112968D910F
:100700009C911397F40161914F01DC01ED91FC91F3
:100710000190F081E02D1995C4018E199F098C1567
:100720009D055CF31EC08EE392E09A83898383E08B
:100730008B8387EC92E09D838C83D801ED91FC91B3
:100740000190F081E02DAE014F5F5F4F67E070E0F8
:10075000C8011995AA24AA94BB24BA9402C0A12C5A
:10076000B12CC5010F900F900F900F900F90DF915B
:10077000CF911F910F91FF90EF90DF90CF90BF909E
:10078000AF909F908F9008950F931F93CF93DF9317
:10079000CDB7DEB72A970FB6F894DEBF0FBECDBF38
:1007A0008C0182E392E09A8389831B821C821D82E2
:1007B0001E821F82188619861A86D801ED91FC9137
:1007C0000190F081E02DAE014F5F5F4F6AE070E075
:1007D000C80119950E944101F801608771878287DD
:1007E00093872A960FB6F894DEBF0FBECDBFDF9178
:1007F000CF911F910F91089582E992E0089583EBC4
:1008000092E0089580E093E0089581E293E00895F6
:1008100087E393E0089586E092E0089588E593E009
:10082000089589E793E00895AF92BF92CF92DF9247
:10083000EF92FF920F931F93CF93DF935C01EB0135
:100840008881F501828389819A81AB81BC81FB011A
:1008500035966C017D0125E0C20ED11CE11CF11C16
:100860008F01061B170B20E030E00C151D052E052F
:100870003F0538F441919F0122503109E901488335
:10088000EFCFFB01E80FF91F14826C5F7F4FF5017A
:10089000748363830596DF91CF911F910F91FF9031
:1008A000EF90DF90CF90BF90AF9008958CE893E0E9
:1008B00008958DEA93E008956F927F928F929F92B0
:1008C000AF92BF92CF92DF92EF92FF920F931F935E
:1008D000CF93DF93DC01FB01808190E013969C9322
:1008E0008E9312972181922B13969C938E9312973D
:1008F00002811381248135815B0186E0A80EB11C41
:1009000068017901C6E0CC0ED11CE11CF11CA501E7
:100910004E1B5F0B60E070E04C155D056E057F05BA
:1009200040F4E50149915E01CE010297EC01488354
:10093000EECFEF01C00FD11F1D82CF010596159696
:100940009C938E931497EF01C00FD11F4E815F814E
:1009500068857985065F1F4F3F01600E711E680133
:10096000012E000CEE08FF08C40ED51EE61EF71E71
:1009700043018E1A9F0AA12CB12C8C149D04AE0445
:10098000BF0440F4E30129913E01CE010297EC013E
:100990002883EECF400F511F9F01240F351FC9013F
:1009A0000197EC011882C80101978E0F9F1F1796BF
:1009B0009C938E931697E90188809980AA80BB80CA
:1009C0004C5F5F4F3F01640E751E8A01052E000CBF
:1009D000220B330B080D191D2A1D3B1D6301CE1A76
:1009E000DF0AE12CF12CC016D106E206F30640F432
:1009F000E30169913E01CE010297EC016883EECFDD
:100A0000CA01880D991D8F01080F191F98012150E7
:100A10003109E9011882BA0161507109E60FF71F27
:100A20001996FC93EE931897F8012181428150E0CA
:100A300060E070E0BA0155274427522B2081422BF9
:100A40002381722B1A964D935D936D937C931D9722
:100A50000496DF91CF911F910F91FF90EF90DF905F
:100A6000CF90BF90AF909F908F907F906F900895A0
:100A700086EC93E0089587EE93E00895FC01DB0196
:100A80004C9150E060E070E042835383648375834F
:100A900011968C911197582B4283538364837583ED
:100AA00012968C911297682B4283538364837583CB
:100AB00013968C911397782B4283538364837583A9
:100AC00014964C91149750E060E070E04683578391
:100AD0006087718715968C911597582B468357839D
:100AE0006087718716968C911697682B468357837B
:100AF0006087718717968C91782B46835783608720
:100B0000718788E090E00895DC01FB0112968C91DA
:100B10001297808313968C911397818314968C91EE
:100B20001497828315968C911597838316968C91D2
:100B30001697848317968C911797858318968C91B6
:100B40001897868319968C91878388E090E00895A2
:100B50008F929F92AF92BF92CF92DF92EF92FF92CD
:100B60000F931F93FC01DB01C380C294C69427E05E
:100B7000C2228C2C912CA12CB12C8D929D92AD92E5
:100B8000BC921397C480D12CE12CF12C33E0CC0C17
:100B9000DD1CEE1CFF1C3A95D1F7C828D928EA289D
:100BA000FB28CD92DD92ED92FC921397058110E027
:100BB00020E030E04BE0000F111F221F331F4A9549
:100BC000D1F7C02AD12AE22AF32ACD92DD92ED9202
:100BD000FC92139706810F7010E020E030E053E1A3
:100BE000000F111F221F331F5A95D1F70C291D2901
:100BF0002E293F290D931D932D933C9313978681A6
:100C000082958F7047814F7750E060E070E094E00C
:100C1000440F551F661F771F9A95D1F7482B411532
:100C2000510561057105A1F04058534061097109F2
:100C300097E1440F551F661F771F9A95D1F7402BF8
:100C4000512B622B732B4D935D936D937C93139774
:100C50004781407850E060E070E0742F66275527A8
:100C600044270D911D912D913C911397402B512BB1
:100C7000622B732B4D935D936D937C93139788E058
:100C800090E01F910F91FF90EF90DF90CF90BF9079
:100C9000AF909F908F900895EF92FF920F931F93C4
:100CA000CF93DF938C017B01BC016E5F7F4FC70147
:100CB0000E94A805EC01B8016A5F7F4FC7018C0F45
:100CC0009D1F0E94A805C80FD91FB801665F7F4FFE
:100CD000C7018C0F9D1F0E94A8058C0F9D1FDF91DF
:100CE000CF911F910F91FF90EF900895EF92FF9297
:100CF0000F931F93CF93DF937C01EB0102960E9429
:100D00004C068C01BE01680F791FC70140960E94F6
:100D10004C06800F911FDF91CF911F910F91FF9093
:100D2000EF9008950F931F93CF93DF938C01EC0105
:100D30002696CE010E947606D8019496ED91FC91FC
:100D40009597CE01DF91CF911F910F9119948F92BA
:100D50009F92AF92BF92CF92DF92EF92FF920F934A
:100D60001F93CF93DF93EC01CB01BA018B019C0160
:100D700047E135952795179507954A95D1F711279E
:100D800022273327011511052105310521F00058CF
:100D90001C4F2F4F3F4F188219821A826B017C0122
:100DA00045E0CC0CDD1CEE1CFF1C4A95D1F7CB8234
:100DB0006B017C0153E0F594E794D794C7945A955E
:100DC000D1F7CC826B017C01EBE0F594E794D794EA
:100DD000C794EA95D1F7CD8268017901F4E0CC0C93
:100DE000DD1CEE1CFF1CFA95D1F74B015C01A3E161
:100DF000B594A79497948794AA95D1F7482D4F70EE
:100E0000C42ACE8268017901B4E0F594E794D794BE
:100E1000C794BA95D1F720E030E0A9010E94D5101F
:100E200087FD02C0CF8203C00C2D00680F8388E0CD
:100E300090E0DF91CF911F910F91FF90EF90DF90A5
:100E4000CF90BF90AF909F908F900895EF92FF92B8
:100E50000F931F93CF93DF937C018B01FC014281A1
:100E6000538164817581C8010E94A706EC01F701D6
:100E70004681578160857185C8018C0F9D1F0E9436
:100E8000A706C80FD91FF70142855385648575856C
:100E9000C8018C0F9D1F0E94A7068C0F9D1FDF911C
:100EA000CF911F910F91FF90EF900895EF92FF92D5
:100EB0000F931F93CF93DF937C01EB0102960E9467
:100EC00026078C01BE01680F791FC70140960E945A
:100ED0002607800F911FDF91CF911F910F91FF90F7
:100EE000EF9008950E94DB124F925F926F927F9273
:100EF0008F929F92AF92BF92CF92DF92EF92FF922A
:100F00000F931F93CF93DF93EC017B01DB011C91C7
:100F10008A81811750F4B4E01B9FB00111248F81A6
:100F200098850E94F21198878F831A83F70137966C
:100F300080E024E030E06E0193E0C90ED11C9A817C
:100F400089010C5F1F4F891790F5408150E060E0E8
:100F500070E0742F6627552744279F0123503109DD
:100F6000D9019C91492B2F5F3F4FD9019C91592B5F
:100F70002F5F3F4FD9019C91692B4B835C836D831D
:100F80007E8398014F815885B4E08B9F400D511DA1
:100F90001124D6018D909D90AD90BC90DA018D9278
:100FA0009D92AD92BC9213978F5F3496C8CFF70194
:100FB000E20FF31FB08089858B1550F4B4E0BB9E1F
:100FC000B00111248E859F850E94F2119F878E8724
:100FD000B98640E0BE01665F7F4F8985F701E00F6B
:100FE000F11F0C5F1F4F481720F55181828190E05F
:100FF000A0E0B0E0DC0199278827952B5081852B54
:101000002381B22B8A879B87AC87BD87AE85BF853E
:10101000E4E04E9FA00DB11D1124FB018080918062
:10102000A280B3808D929D92AD92BC9213974F5F38
:10103000D4CFB08088898B1550F46B2D70E0660F8B
:10104000771F8B899C890E94F2119C8B8B8BB88AAD
:1010500090E06E01F1E1CF0ED11C8889981708F05D
:1010600045C0F701E00FF11F40815181628173811A
:1010700098012C5F3F4FF701E20FF31F4901032E48
:10108000000CAA08BB08840E951EA61EB71E8F0171
:101090000E191F092801612C712C481459046A0487
:1010A0007B0438F481918F0102501109D8018C938F
:1010B000EECF420F531FF701E40FF51F3197108257
:1010C000215031092E0D3F1D3A8B298B8A012B8926
:1010D0008C89E22FF82FE90FF11DE90FF11DD601E0
:1010E0002D913C91318320839F5FB7CFC801DF9161
:1010F000CF911F910F91FF90EF90DF90CF90BF9015
:10110000AF909F908F907F906F905F904F900895D9
:101110002F923F924F925F926F927F928F929F9207
:10112000AF92BF92CF92DF92EF92FF920F931F93F5
:10113000CF93DF93CDB7DEB7A8970FB6F894DEBF95
:101140000FBECDBF8C010E9441012B013C019801D3
:1011500029573B4F3C8B2B8BF90180819181A281D8
:10116000B381A3019201281B390B4A0B5B0BDA01F7
:10117000C901893F9A42A105B10510F03597108247
:10118000780148E8E41A4BEFF40AD7018D919C915D
:10119000892B79F0F801E557FB4F80819181A2817D
:1011A000B38184159505A605B70518F4F7011182DA
:1011B0001082980120583B4F388B2F87A801445844
:1011C0005B4F5A8B498BC80144969E8B8D8BD801FF
:1011D000AE57BB4FBA8FA98FF801E057FB4FF8A36A
:1011E000EF8F215F3F4F3AA329A3180136E8231A56
:1011F0003BEF330A4E5F5F4F588F4F8B89589B4FA1
:101200009CA38BA3A30192012C5E3F4F4F4F5F4FD6
:101210002DA33EA34FA358A7D80112968D919C9160
:101220001397DC01ED91FC910284F385E02D199573
:101230009C0197FD77C2EF85F88980819181820FAB
:10124000931F91838083D7014D915C914730510565
:10125000C9F4EF89F88D80819181AC014F5F5F4FB8
:1012600051834083F801E80FF91F248BD1018D9140
:101270009C91119701978D939C93892B69F688E037
:1012800090E033C04115510541F52F3F310589F4F8
:1012900081E090E0D7018D939C932DA13EA14FA1B9
:1012A00058A5ABA1BCA12D933D934D935C9313978F
:1012B000B3CF0E944101DC01CB0184199509A60935
:1012C000B7090697A105B10508F4A6CFF801EE57B6
:1012D000FB4F10828EEF9FEF4DC241305105A9F4B4
:1012E0002E3F310531F482E090E0F7019183808355
:1012F00093CFD7011D921C92E98DFA8D80818111C7
:101300008BCFC8010E94C40387CF4230510589F4B6
:10131000D1012D933C93EF89F88D1182108283E0E7
:1013200090E0D7018D939C93EF85F88931832083DA
:1013300073CF4330510569F4322F2227D1018D91AB
:101340009C911197280F391F2D933C9384E090E0D6
:10135000CCCF4430510589F460E071E00E946910FF
:101360008F3F910531F485E090E0D7018D939C93F8
:1013700053CFF701118210824FCF4530510571F4E0
:10138000A989BA892D933C9386E090E0F701918377
:101390008083AF85B8892D933C933ECF463051056D
:1013A00099F4322F2227E989FA8980819181280FC7
:1013B000391F3183208387E090E0D7018D939C9380
:1013C000F1018081918159CF4830510509F024CF36
:1013D000D7011D921C9260E071E00E9469108F3F5E
:1013E000910509F019CFE989FA89808191810097E7
:1013F00009F0C7C0C8010E94C40386E292E09A8344
:1014000089831C821B828FEF92E09E838D83988755
:101410008F839A8789871B861C861D861E865801A6
:10142000FCEEAF1AFBEFBF0A68012AEBC21A2BEFE2
:10143000D20AD501ED91FC913097D9F18481958143
:101440009C838B83808191819E838D838281938114
:10145000DC01ED91FC910480F581E02D19959887D0
:101460008F83D501ED91FC9182819381DC01ED9117
:10147000FC910680F781E02D19959A87898720E0F5
:1014800032E040E050E02B873C874D875E87D801F3
:101490008D919C91F501A081B18118966D917C91FF
:1014A0001997DC01ED91FC91AE014F5F5F4FC801D0
:1014B0001995B2E0AB0EB11CAC14BD0409F0B9CF64
:1014C000812C92E0992EA12CB12CF601A081B18142
:1014D0001097E1F112968D919C9113979C838B83C9
:1014E00014968D919C9115979E838D83ED91FC911F
:1014F00011970480F581E02DCD01199598878F8390
:10150000D6018D919C91DC01ED91FC910680F781D3
:10151000E02D19959A8789878B869C86AD86BE8635
:10152000D801ED91FC9120803180F601808191817C
:10153000DC01ED91FC910280F381E02D1995AE0163
:101540004F5F5F4FBC01C801F1011995F2E0CF0E6A
:10155000D11CCE14DF0409F0B8CFF801EE57FB4FD1
:1015600081E0808331964082518262827382AB89AE
:10157000BC894D925D926D927C9213978FEF9FEF95
:10158000F9C08A30910509F0A2C082E392E09A8303
:1015900089831B821C821D821E821F8218861986E7
:1015A0001A860E944101F80180849184A284B38448
:1015B0009B01AC01281939094A095B0949015A0103
:1015C0006D897E89CE0101960E943E05C501B40158
:1015D00028EE33E040E050E00E947D108B809C803C
:1015E000AD80BE80820E931EA41EB51E8B829C828F
:1015F000AD82BE829B01AC0160E472E48FE090E0BA
:101600000E9459108F809884A984BA84DC01CB0190
:10161000880D991DAA1DBB1D8F839887A987BA873E
:101620000E9441018F809884A984BA8436E3931A7A
:1016300035E6A30A34ECB30A28EE33E040E050E08C
:101640000E947D102B8F3C8F4D8F5E8F9B01AC01D4
:1016500060E472E48FE090E00E945910A5019401CB
:10166000261B370B480B590BCA01B9018B809C8094
:10167000AD80BE8031E0831A9108A108B1082B8D9E
:101680003C8D4D8D5E8D821A930AA40AB50A20E026
:101690003AEC4AE95BE30E947D10820E931EA41E81
:1016A000B51ED8011C968D929D92AD92BC921F974B
:1016B000F801608B718B828B938B0E944101AB8907
:1016C000BC896D937D938D939C931397A5CD8630A4
:1016D000910559F46D897E898F8D98A10E947407B8
:1016E00081E0E9A1FAA1808397CD8B30910521F4A7
:1016F000A98DBA8D1C9290CDFC01E154FE4FEE0FE6
:10170000FF1FE00FF11F80819181009709F484CDC4
:10171000DC01ED91FC910190F081E02D6D897E89D5
:1017200019957ACDF801EE57FB4F8081882301F19E
:101730007801BDE7EB1ABBEFFB0AF70180819181CD
:10174000A281B381A3019201281B390B4A0B5B0BC9
:10175000DA01C901853C9940A105B10548F0C801ED
:101760000E94C403D7014D925D926D927C921397B3
:1017700080E090E0A8960FB6F894DEBF0FBECDBF14
:10178000DF91CF911F910F91FF90EF90DF90CF905D
:10179000BF90AF909F908F907F906F905F904F9091
:1017A0003F902F900895BF92CF92DF92EF92FF92D9
:1017B0000F931F93CF93DF93EC018B018A81FB0181
:1017C0008083118212821382DB01179680E0E4E0AD
:1017D000F0E09A819F012C5F3F4F8917B8F4EF81A9
:1017E000F88594E0899FE00DF11D112470815181ED
:1017F00042819381FD0133977083319650833196F6
:1018000040839C93F9018F5F1496E3CF8985E00FA5
:10181000F11F808311821282138280E09985F80182
:10182000E20FF31F2C5F3F4F8917B0F4AE85BF85E1
:1018300094E0899FA00DB11D11246C9111965C91CB
:10184000119712964C91129713969C916083518335
:10185000428393838F5FE2CF8889808311821282D3
:10186000C9011382B12C2889B21690F5EB2DF0E056
:10187000EE0FFF1FAB89BC89AE0FBF1F2D913C91AE
:10188000D9010D900020E9F711976D01C21AD30A12
:10189000D801A80FB91FA60160E070E04D935D93D9
:1018A0006D937C9313977C0124E0E20EF11C8B89ED
:1018B0009C89E80FF91F60817181A601C8018E0D16
:1018C0009F1D0E94E012C6018E0D9F1DB394CBCFC9
:1018D000DF91CF911F910F91FF90EF90DF90CF900C
:1018E000BF900895CF93DF93DC01FB0112968C919A
:1018F0001297808313968D919C911497EC01099017
:101900000020E9F72197C81BD90BAE0160E070E019
:10191000418352836383748313966D917C911497F2
:10192000AE01CF0105960E94E012CE010596DF912F
:10193000CF910895CF92DF92EF92FF920F931F9372
:10194000CF93DF937C01EB01FC018281888383814B
:101950008983A481B581FD0101900020E9F73197C9
:101960006F01CA1ADB0AC601A0E0B0E08A839B833C
:10197000AC83BD83F70164817581A601CE01069613
:101980000E94E012F701A681B781FD0101900020BD
:10199000E9F731978F010A1B1B0BFE01EC0DFD1DB2
:1019A000C801A0E0B0E086839783A087B187FAE002
:1019B000CF0ED11CF70166817781A801CE018C0D75
:1019C0009D1D0E94E0120C0D1D1DF701A085B18523
:1019D000FD0101900020E9F731976F01CA1ADB0A77
:1019E000FE01E00FF11FC601A0E0B0E0808391830B
:1019F000A283B3830C5F1F4FF70160857185A60139
:101A0000CE01800F911F0E94E0120C0D1D1DF701E9
:101A10004285238594858585C00FD11F48832983FE
:101A20009A838B83C8010496DF91CF911F910F9108
:101A3000FF90EF90DF90CF9008951F920F920FB616
:101A40000F9211242F933F938F939F93AF93BF9344
:101A50008091020590910305A0910405B0910505C0
:101A60003091010523E0230F2D3720F40196A11DAD
:101A7000B11D05C026E8230F0296A11DB11D2093BC
:101A800001058093020590930305A0930405B0938C
:101A900005058091060590910705A0910805B09174
:101AA00009050196A11DB11D8093060590930705B8
:101AB000A0930805B0930905BF91AF919F918F91B5
:101AC0003F912F910F900FBE0F901F9018951F926E
:101AD0000F920FB60F9211240BB60F922F933F93D4
:101AE0004F935F936F937F938F939F93AF93BF9326
:101AF000EF93FF938AE095E00E944B02FF91EF91F4
:101B0000BF91AF919F918F917F916F915F914F9115
:101B10003F912F910F900BBE0F900FBE0F901F9013
:101B200018951F920F920FB60F9211240BB60F92B9
:101B30002F933F934F935F936F937F938F939F93D5
:101B4000AF93BF93EF93FF938AE095E00E947801F3
:101B5000FF91EF91BF91AF919F918F917F916F9185
:101B60005F914F913F912F910F900BBE0F900FBE41
:101B70000F901F9018951F920F920FB60F9211247D
:101B80000BB60F922F933F934F935F936F937F9377
:101B90008F939F93AF93BF93EF93FF9387EA95E063
:101BA0000E944B02FF91EF91BF91AF919F918F9156
:101BB0007F916F915F914F913F912F910F900BBE4D
:101BC0000F900FBE0F901F9018951F920F920FB697
:101BD0000F9211240BB60F922F933F934F935F9365
:101BE0006F937F938F939F93AF93BF93EF93FF93E5
:101BF00087EA95E00E947801FF91EF91BF91AF9144
:101C00009F918F917F916F915F914F913F912F9114
:101C10000F900BBE0F900FBE0F901F901895109253
:101C20000D0510920C0548EE53E060E070E0409323
:101C30000E0550930F0560931005709311058AE40B
:101C400092E090930B0580930A052DEC30E03093E1
:101C50001705209316052CEC30E0309319052093DE
:101C6000180528EC30E030931B0520931A0529EC69
:101C700030E030931D0520931C052AEC30E03093B2
:101C80001F0520931E052EEC30E030932105209394
:101C9000200510922305109224051092250510921C
:101CA00026051092AA051092A9054093AB05509302
:101CB000AC056093AD057093AE059093A805809335
:101CC000A70585EC90E09093B4058093B30584EC70
:101CD00090E09093B6058093B50580EC90E09093EA
:101CE000B8058093B70581EC90E09093BA05809396
:101CF000B90582EC90E09093BC058093BB0586EC1F
:101D000090E09093BE058093BD051092C00510929F
:101D1000C1051092C2051092C30580E892E090932D
:101D20006D0680936C0687EA95E090936F0680932A
:101D30006E0680E091EEA0E0B0E080937006909394
:101D40007106A0937206B09373061092EE0A84E7B0
:101D500092E09093FD0A8093FC0A1092FE0A109282
:101D6000040B1092030B1092050B10920B0B1092A8
:101D70000A0B10920C0B1092100B10920F0BE0E854
:101D8000FAE0119211928AE0E23BF807D1F7E2EB18
:101D9000FAE0119211928AE0E43EF807D1F7E0E808
:101DA000F6E0119288E0E038F807D9F7E0E8F8E0CB
:101DB00011928AE0E038F807D9F78AE892E0909328
:101DC00045068093440688E692E090934B06809304
:101DD0004A068CE592E090934D0680934C06109253
:101DE0004E0610924F061092500610925106109215
:101DF00052061092530610925406109255061092F5
:101E00005606109257061092580610925906909353
:101E10005B0680935A0610925C0610925D06109243
:101E20005E0610925F061092600610926106109294
:101E30006206109263061092640610926506109274
:101E400066061092670686EF90E09093690680938D
:101E5000680681E090E090936B0680936A0685EFB8
:101E600093E090934906809348060895789484B54A
:101E7000826084BD84B5816084BD85B5826085BD86
:101E800085B5816085BD80916E00816080936E0014
:101E90001092810080918100826080938100809106
:101EA00081008160809381008091800081608093B7
:101EB00080008091B10084608093B1008091B00077
:101EC00081608093B0008091910082608093910046
:101ED0008091910081608093910080919000816059
:101EE000809390008091A10082608093A1008091F6
:101EF000A10081608093A1008091A0008160809307
:101F0000A0008091210182608093210180912101B4
:101F10008160809321018091200181608093200164
:101F200080917A00846080937A0080917A00826048
:101F300080937A0080917A00816080937A0080910A
:101F40007A00806880937A001092C10040917006F8
:101F500050917106609172067091730626E080912F
:101F60006E0690916F060E94E6011092E50A1092AB
:101F7000E40A1092E70A1092E60A1092EB0A109215
:101F8000EA0A1092E90A1092E80AE2EBFAE080E02D
:101F900090E021913191232B81F4FC01EE0FFF1F82
:101FA000EE54F54F24E436E0318320838C599F4F63
:101FB000909347068093460604C0019689319105A7
:101FC00041F726E240E05BE460E070E08AE095E003
:101FD0000E94E601DAE61CE08EEF93E0C6E0C80F4F
:101FE0002091FF04309100058091FD049091FE0442
:101FF000253631053CF42C394FEF34072CF42CE90D
:102000003FEF02C024E630E0853691053CF48C3980
:10201000EFEF9E072CF48CE99FEF02C084E690E07E
:10202000D093FE032093FF038093000410920104D9
:10203000109302042A58820F8095809303049EEF28
:10204000E92E93E0F92EF70161917F018AE095E096
:102050000E946C02CE11F7CF8CE696E00E948808B1
:102060000E941C014B015C0184E1C82ED12CE12CA3
:10207000F12C0E941C01DC01CB0188199909AA09E5
:10208000BB09883E9340A105B10558F0F1E0CF1A95
:10209000D108E108F10828EE820E23E0921EA11C6F
:1020A000B11CC114D104E104F10419F70E94D50256
:1020B00097CFDB018F939F930E949F10BF91AF91A9
:1020C000A29F800D911DA39F900DB29F900D112492
:1020D000089597FB072E16F4009407D077FD09D0DA
:1020E0000E94AA1007FC05D03EF4909581959F4F61
:1020F0000895709561957F4F0895A1E21A2EAA1B4D
:10210000BB1BFD010DC0AA1FBB1FEE1FFF1FA217A7
:10211000B307E407F50720F0A21BB30BE40BF50BA4
:10212000661F771F881F991F1A9469F7609570952D
:10213000809590959B01AC01BD01CF0108950E944F
:10214000C610A59F900DB49F900DA49F800D911D6A
:1021500011240895AA1BBB1B51E107C0AA1FBB1F76
:10216000A617B70710F0A61BB70B881F991F5A9523
:10217000A9F780959095BC01CD010895EE0FFF1F42
:10218000881F8BBF0790F691E02D1994A29FB00194
:10219000B39FC001A39F700D811D1124911DB29F9B
:1021A000700D811D1124911D08950E94101108F4D5
:1021B00081E008950E94E1106894B1110C945711C8
:1021C00008950E943C1188F09F5798F0B92F9927E5
:1021D000B751B0F0E1F0660F771F881F991F1AF012
:1021E000BA95C9F714C0B13091F00E945611B1E010
:1021F00008950C945611672F782F8827B85F39F00F
:10220000B93FCCF3869577956795B395D9F73EF4AA
:1022100090958095709561957F4F8F4F9F4F089552
:10222000990F0008550FAA0BE0E8FEEF16161706E7
:10223000E807F907C0F012161306E407F50798F04F
:10224000621B730B840B950B39F40A2661F0232B68
:10225000242B252B21F408950A2609F4A140A695E4
:102260008FEF811D811D089557FD9058440F551F14
:1022700059F05F3F71F04795880F97FB991F61F008
:102280009F3F79F087950895121613061406551F7F
:10229000F2CF4695F1DF08C0161617061806991FEB
:1022A000F1CF86957105610508940895E894BB27E0
:1022B00066277727CB0197F908950E9470110C9437
:1022C000E1110E94D31138F00E94DA1120F0952319
:1022D00011F00C94CA110C94D01111240C945711C4
:1022E0000E94341170F3959FC1F3950F50E0551F74
:1022F000629FF001729FBB27F00DB11D639FAA275B
:10230000F00DB11DAA1F649F6627B00DA11D661FA9
:10231000829F2227B00DA11D621F739FB00DA11DCA
:10232000621F839FA00D611D221F749F3327A00D84
:10233000611D231F849F600D211D822F762F6A2F20
:1023400011249F5750409AF0F1F088234AF0EE0F85
:10235000FF1FBB1F661F771F881F91505040A9F7B2
:102360009E3F510580F00C94CA110C9457115F3FA9
:10237000E4F3983ED4F3869577956795B795F795EE
:10238000E7959F5FC1F7FE2B880F911D9695879566
:1023900097F9089597F99F6780E870E060E00895E5
:1023A0009FEF80EC089500240A941616170618066D
:1023B0000906089500240A94121613061406050649
:1023C0000895092E0394000C11F4882352F0BB0FDA
:1023D00040F4BF2B11F460FF04C06F5F7F4F8F4F3D
:1023E0009F4F08956F927F928F929F92AF92BF926C
:1023F000CF92DF92EF92FF920F931F93CF93DF93D1
:10240000EC01009789F4CB01DF91CF911F910F91DF
:10241000FF90EF90DF90CF90BF90AF909F908F9004
:102420007F906F900C94E912FC01E60FF71F9C015E
:1024300022503109E217F30708F4ACC0D9010D911D
:102440001C91119706171707B0F00530110508F415
:102450009FC0C80104978617970708F499C00250D7
:102460001109061B170B019311936D937C93CF01F8
:102470000E947E138DC05B01A01AB10A4C01800E30
:10248000911EA091130BB091140B40E050E0E12C91
:10249000F12C109709F44AC0A815B905D1F56D9033
:1024A0007C901197630182E0C80ED11CCA14DB0432
:1024B00080F1A3014A195B096A0182E0C80ED11CB0
:1024C0001296BC9012971396AC91B5E0CB16D1043E
:1024D00040F0B282A38351834083D9016D937C93F2
:1024E0000AC00E5F1F4FC301800F911FF901918336
:1024F0008083EB2DFA2FE114F10431F0D70113960C
:10250000FC93EE93129744C0F093140BE093130BDB
:102510003FC08D919C9111974817590708F4AC0161
:102520007D0112960D90BC91A02DB3CF8091110B1F
:102530009091120B88159905E1F446175707C8F4D6
:102540008091000290910102009741F48DB79EB7EF
:102550004091040250910502841B950BE817F9077E
:10256000C8F4F093120BE093110BF90171836083AF
:102570000FC0CB010E94E9127C01009759F0A8011D
:10258000BE010E94E012CE010E947E13C70104C06A
:10259000CE0102C080E090E0DF91CF911F910F91BA
:1025A000FF90EF90DF90CF90BF90AF909F908F9073
:1025B0007F906F90089581E090E0F8940C94161449
:1025C000FB01DC0102C001900D9241505040D8F750
:1025D0000895CF93DF938230910510F482E090E06C
:1025E000E091130BF091140B20E030E0C0E0D0E05C
:1025F000309711F14081518148175907C0F04817B1
:10260000590761F482819381209719F09B838A8313
:102610002BC09093140B8093130B26C0211531050A
:1026200019F04217530718F49A01BE01DF01EF01B8
:102630000280F381E02DDCCF2115310509F1281B43
:10264000390B2430310590F412968D919C9113979B
:102650006115710521F0FB019383828304C090937F
:10266000140B8093130BFD01329644C0FD01E20F61
:10267000F31F81939193225031092D933C933AC0DB
:102680002091110B3091120B232B41F42091020267
:10269000309103023093120B2093110B2091000212
:1026A000309101022115310541F42DB73EB740911B
:1026B000040250910502241B350BE091110BF0919F
:1026C000120BE217F307A0F42E1B3F0B2817390754
:1026D00078F0AC014E5F5F4F2417350748F04E0F7E
:1026E0005F1F5093120B4093110B8193919302C083
:1026F000E0E0F0E0CF01DF91CF9108950F931F93B9
:10270000CF93DF93009709F48CC0FC0132971382BA
:1027100012820091130B1091140B0115110581F415
:1027200020813181820F931F2091110B3091120B68
:102730002817390779F5F093120BE093110B71C04C
:10274000D80140E050E0AE17BF0750F412962D912B
:102750003C911397AD012115310509F1D901F3CF52
:102760009D01DA013383228360817181860F971F77
:102770008217930769F4EC0128813981260F371FEE
:102780002E5F3F4F318320838A819B819383828395
:10279000452B29F4F093140BE093130B42C01396CE
:1027A000FC93EE931297ED01499159919E01240FEC
:1027B000351FE217F30771F480819181840F951F13
:1027C000029611969C938E938281938113969C938B
:1027D0008E931297E0E0F0E0D80112968D919C91D3
:1027E0001397009719F0F8018C01F6CF8D919C9109
:1027F00098012E5F3F4F820F931F2091110B309154
:10280000120B2817390769F4309729F41092140B2A
:102810001092130B02C0138212821093120B0093BA
:10282000110BDF91CF911F910F910895F894FFCF75
:102830000000150B8000726F7373657269616C5FC5
:102840006D7367732F526571756573745061726132
:102850006D00000000009A0C5C045904560400004E
:10286000000084053E053B05380500000000720CA1
:10287000140411040E04000000006C024D019501C7
:10288000B302C601A401B8010000000026074C06EF
:10289000050402040000000056077606FF03FC034F
:1028A00000000000D30B74070B04080400000000B4
:1028B000190388080A03000000009206150312039A
:1028C0000F0339663139356638383132343666644B
:1028D0006661323739386431643365656263613803
:1028E00034610067656F6D657472795F6D736773CE
:1028F0002F5477697374004D657373616765206643
:10290000726F6D206465766963652064726F7070A4
:1029100065643A206D657373616765206C617267E9
:102920006572207468616E206275666665722E003D
:102930003461383432623635663431333038346499
:1029400063326231306662343834656137663137FC
:102950000067656F6D657472795F6D7367732F566D
:102960006563746F7233003966306539386264614B
:1029700036353938313938366464663533616661E5
:102980003761343065343900313161626437333155
:10299000633235393333323631636436313833623A
:1029A000643132643632393500726F73736572691F
:1029B000616C5F6D7367732F4C6F670030616435B6
:1029C00031663838666334343839326638633130CA
:1029D00036383430373736343630303500726F732E
:1029E00073657269616C5F6D7367732F546F706983
:1029F00063496E666F00636437313636633734631C
:102A00003535326333313166626363326665356111
:102A1000376263323839007374645F6D7367732F84
:0E2A200054696D65002F636D645F76656C0010
:00000001FF
